:100000000C9443000C94D9030C94D9030C94D90399
:100010000C94D9030C94D9030C94D9030C94D903F0
:100020000C94D9030C94D9030C94D9030C94D903E0
:100030000C94D9030C94D9030C94D9030C94D903D0
:100040000C94D9030C94D9030C94D9030C94D903C0
:100050000C94D9030C94D9030C94D9030C94D903B0
:100060000C94D9030C94D9030100012280012201D0
:10007000240007C00124013280013201330007C28D
:1000800001330139800011241FBECFEFD8E0DEBF5D
:10009000CDBFE8E6F0E040E017C0B591A5913591FD
:1000A0002591059107FD0CC095918591EF01F92FE0
:1000B000E82F05900D92A217B307D9F7FE0104C0EF
:1000C0001D92A217B307E1F7E538F40731F70E9454
:0A00D00082030C94B303F894FFCFF1
:1000DA008091C00088230CF0DDC02091C600809179
:1000EA003001909131018130910599F0823091056A
:1000FA00E9F0009709F0CAC02A3A31F401969093C0
:10010A00310180933001089510923101109230012B
:10011A000895253531F40196909331018093300189
:10012A00089510923101109230010895211107C0EB
:10013A00109234011092290110922801A2C0213094
:10014A0049F41092340181E090E090932901809360
:10015A00280197C0223049F41092340182E090E0DD
:10016A0090932901809328018CC0203129F460E002
:10017A0080E00E94F50285C0213129F461E080E027
:10018A000E94F5027EC0223129F462E080E00E94DA
:10019A00F50277C0233129F463E080E00E94F5027A
:1001AA0070C0243129F464E080E00E94F50269C03D
:1001BA00253129F465E080E00E94F50262C026310B
:1001CA0029F466E080E00E94F5025BC0273129F439
:1001DA0067E080E00E94F50254C0283129F468E003
:1001EA0080E00E94F5024DC0293129F469E080E0DF
:1001FA000E94F50246C02A3129F46AE080E00E9492
:10020A00F5023FC02B3129F46BE080E00E94F50231
:10021A0038C02C3129F46CE080E00E94F50231C02C
:10022A0080EE820F8135A8F410923201822F90E07D
:10023A0080979C01220F331F880F991F880F991FDF
:10024A00880F991F820F931F909323018093220195
:10025A0018C0213729F4109221011092200111C0EF
:10026A00223739F481E090E09093210180932001B4
:10027A0008C0233731F482E090E090932101809303
:10028A00200110923101109230010895109231012B
:06029A00109230010895EE
:1002A0000E94560380912E0190912F010197909307
:1002B0002F0180932E01992324F410922F01109284
:1002C0002E0180912E0190912F01892B09F065C09C
:1002D000809138018823F1F18093360180E395E71E
:1002E00090932F0180932E01809118019091190114
:1002F000A0911A01B0911B010196A11DB11D80931F
:10030000180190931901A0931A01B0931B014F9704
:10031000A105B1050CF441C082E50E94C80385E641
:100320000E94C80383E70E94C80385E60E94C803B1
:1003300084E70E94C8038DE00E94C8038AE00E94FF
:10034000C803109218011092190110921A0110920C
:100350001B010895809136018823B9F080E50E9441
:10036000C80382E70E94C80385E60E94C80383E7AA
:100370000E94C80383E70E94C8038DE00E94C8035F
:100380008AE00E94C8031092360110921801109260
:0C039000190110921A0110921B0108952F
:10039C0080912C0190912D01019690932D018093C9
:1003AC002C018D3291403CF010922D0110922C01B9
:1003BC0081E080933501809135018823C1F18091D2
:1003CC002A0190912B01019690932B0180932A0185
:1003DC00039724F010922B0110922A0110923501F0
:1003EC0020E030E080E018C0880FE0912A01F09105
:1003FC002B01EE0FFF1FEE0FFF1FE20FF31FEE0F8F
:10040C00FF1FE050FF4F9181890F908140E1949F35
:10041C00800D11242F5F3F4F243031052CF30E94A7
:10042C00D60380912A010E9418030E94D3030895D9
:10043C00CF9380913401811132C08091240190912D
:10044C002501019690932501809324010D973CF092
:10045C00109225011092240181E080933401C09107
:10046C0024018091280190912901892B21F46C2F72
:10047C0080E00E94F502809128019091290101975A
:10048C0021F460E08C2F0E94F5028091280190915C
:10049C002901029721F46C2F8C2F0E94F502CF9129
:0204AC000895B1
:1004AE0080911E0190911F01019690931F018093E0
:1004BE001E018D349D416CF010921F0110921E0191
:1004CE0080911C0190911D01019690931D018093C6
:1004DE001C0180912201909123010B9734F48AE044
:1004EE0090E0909323018093220120911C01309182
:1004FE001D0180912201909123018217930734F4FC
:0E050E0010921D0110921C010E94C20208955D
:10051C00CF93DF9382E087B988B99FE097B988B908
:10052C00C0E0D0E004C080E00E943A032196C330C2
:10053C00D105CCF388B1846088B985E08A95F1F750
:10054C0088B18B7F88B986E69EE00197F1F70000B1
:10055C0088B18D7F88B988B18E7F88B988B18B7F3F
:10056C0088B988B1877F88B986E69EE00197F1F754
:08057C000000DF91CF9108950A
:10058400CF938091320181112CC0C0913301CF5F90
:10059400C09333018091200190912101892B21F492
:1005A4006C2F80E00E94F50280912001909121013E
:1005B400019721F460E08C2F0E94F50280912001C4
:1005C40090912101029721F46C2F8C2F0E94F50247
:1005D400809133018C3028F01092330181E08093B4
:0605E4003201CF910895E1
:1005EA0020E030E01CC0482F50E091E02417350786
:1005FA000CF090E0F901EE0FFF1FE050FF4F9083DF
:10060A00462F50E091E0241735070CF090E0F901ED
:10061A00EE0FFF1FE050FF4F91832F5F3F4F2C30AB
:06062A0031050CF30895F8
:10063000811109C095B1916095B995B19D7F95B92A
:1006400095B19B7F95B9813049F495B19E7F95B95D
:1006500095B1926095B995B19B7F95B9823049F477
:1006600085B18E7F85B985B18D7F85B985B184606F
:0406700085B90895AB
:1006740020E011C098B1977F98B980FF04C098B169
:10068400916098B903C098B19E7F98B998B1986069
:1006940098B986952F5F283068F388B1877F88B929
:0806A40081E08A95F1F7089549
:1006AC004A9905C0809137018F5F809337014A9B2F
:1006BC0005C08091370181508093370180913701BB
:1006CC00853630F081E08093380184E680933701E1
:0206DC0008957F
:1006DE008091260190912701019690932701809396
:1006EE0026018133954734F010922701109226018E
:0606FE000E941E02089597
:100704000E9493030E94A3030E94CF030E945702F6
:100714000E946F030E94CE010E946D000E9450014E
:02072400F5CF0F
:100726001092C000E1ECF0E0108286E08093C200F7
:100736001092C5008FE58093C40088E180830895F8
:1007460084B1816084B984B1826084B984B18460E3
:1007560084B90E948E0260E080E00E94F50208954E
:10076600EC010E94DE030E94DD03CE010E94DF033E
:06077600CE010E94DB032E
:10077C0088B1846088B985E08A95F1F788B18B7F60
:04078C0088B908958B
:0E0790009091C00095FFFCCF8093C6000895A5
:08079E008AB18B7F8AB908952E
:0607A6000E94BE0308954D
:0607AC000E943A030895CB
:0407B2000C940000A3
:0407B6000E946B0032
:0207BA000895A0
:0207BC0008959E
:0207BE0008959C
:0207C0000A002D
:0107C2000135
:00000001FF
