:100000000C9449000C9431040C9431040C94310488
:100010000C9431040C9431040C9431040C9431048C
:100020000C9431040C9431040C9431040C9431047C
:100030000C9431040C9431040C9431040C9431046C
:100040000C9431040C9431040C9431040C9431045C
:100050000C9431040C9431040C9431040C9431044C
:100060000C9431040C94310401000122800122011E
:10007000240008700124013280013201330008722B
:100080000133013780013701380008730138013925
:10009000800011241FBECFEFD8E0DEBFCDBFE8E661
:1000A000F0E040E017C0B591A591359125910591FB
:1000B00007FD0CC095918591EF01F92FE82F059070
:1000C0000D92A217B307D9F7FE0104C01D92A21723
:1000D000B307E1F7E139F40731F70E94AA030C9462
:0600E000F203F894FFCFCB
:1000E6008091C00088230CF0F1C02091C600809159
:1000F6003001909131018130910599F0823091055E
:10010600E9F0009709F0DEC02A3A31F4019690939F
:10011600310180933001089510923101109230011F
:100126000895253531F4019690933101809330017D
:10013600089510923101109230010895211107C0DF
:10014600109234011092290110922801B6C0213074
:1001560049F41092340181E090E090932901809354
:100166002801ABC0223049F41092340182E090E0BD
:100176009093290180932801A0C0203129F460E0E2
:1001860080E00E94270399C0213129F461E080E0D4
:100196000E94270392C0223129F462E080E00E9487
:1001A60027038BC0233129F463E080E00E942703F4
:1001B60084C0243129F464E080E00E9427037DC0D6
:1001C600253129F465E080E00E94270376C02631B8
:1001D60029F466E080E00E9427036FC0273129F4E6
:1001E60067E080E00E94270368C0283129F468E0B0
:1001F60080E00E94270361C0293129F469E080E08C
:100206000E9427035AC02A3129F46AE080E00E943E
:10021600270353C02B3129F46BE080E00E942703AB
:100226004CC02C3129F46CE080E00E94270345C0C5
:1002360080EE820F8135A8F410923201822F90E071
:1002460080979C01220F331F880F991F880F991FD3
:10025600880F991F820F931F909323018093220189
:100266002CC0213729F4109221011092200125C0BB
:10027600223739F481E090E09093210180932001A8
:100286001CC0233739F482E090E0909321018093DB
:10029600200113C0243719F40E941B040EC0253711
:1002A60019F40E941F0409C0263719F40E9423047A
:1002B60004C0273711F40E942704109231011092CE
:0E02C600300108951092310110923001089518
:1002D4000E944A0380912E0190912F0101979093DF
:1002E4002F0180932E01992324F410922F01109250
:1002F4002E0180912E0190912F01892B09F065C068
:10030400809138018823F1F18093360180E395E7E9
:1003140090932F0180932E018091180190911901DF
:10032400A0911A01B0911B010196A11DB11D8093EA
:10033400180190931901A0931A01B0931B014F97D0
:10034400A105B1050CF441C082E50E94100485E6C4
:100354000E94100483E70E94100485E60E941004A2
:1003640084E70E9410048DE00E9410048AE00E9439
:100374001004109218011092190110921A0110928F
:100384001B010895809136018823B9F080E50E940D
:10039400100482E70E94100485E60E94100483E79B
:1003A4000E94100483E70E9410048DE00E94100450
:1003B4008AE00E94100410923601109218011092E3
:0C03C400190110921A0110921B010895FB
:1003D00080912C0190912D01019690932D01809395
:1003E0002C018D3291403CF010922D0110922C0185
:1003F00081E080933501809135018823C1F180919E
:100400002A0190912B01019690932B0180932A0150
:10041000039724F010922B0110922A0110923501BB
:1004200020E030E080E018C0880FE0912A01F091D0
:100430002B01EE0FFF1FEE0FFF1FE20FF31FEE0F5A
:10044000FF1FE050FF4F9181890F908140E1949F01
:10045000800D11242F5F3F4F243031052CF30E9473
:100460002E0480912A010E946C030E942B0408959F
:10047000CF93DF9387B1826087B988B1826088B9F2
:1004800087B1816087B987B1826087B987B184609D
:1004900087B987B1886087B988B1826088B988B127
:1004A0008E7F88B988B18B7F88B988B1877F88B9FA
:1004B000C0E0D0E004C080E00E948E032196C330EB
:1004C000D105CCF388B1846088B985E08A95F1F7CD
:1004D00088B18B7F88B986E69EE00197F1F700002E
:1004E00088B18D7F88B988B18E7F88B988B18B7FBC
:1004F00088B988B1877F88B986E69EE00197F1F7D1
:080500000000DF91CF91089586
:10050800CF9380913401811132C080912401909160
:100518002501019690932501809324010D973CF0C5
:10052800109225011092240181E080933401C0913A
:1005380024018091280190912901892B21F46C2FA5
:1005480080E00E942703809128019091290101975A
:1005580021F460E08C2F0E9427038091280190915C
:100568002901029721F46C2F8C2F0E942703CF9129
:020578000895E4
:10057A0080911E0190911F01019690931F01809313
:10058A001E018D349D416CF010921F0110921E01C4
:10059A0080911C0190911D01019690931D018093F9
:1005AA001C0180912201909123010B9734F48AE077
:1005BA0090E0909323018093220120911C013091B5
:1005CA001D0180912201909123018217930734F42F
:0E05DA0010921D0110921C010E94F40208955F
:1005E800CF938091320181112CC0C0913301CF5F2C
:1005F800C09333018091200190912101892B21F42E
:100608006C2F80E00E9427038091200190912101A6
:10061800019721F460E08C2F0E942703809120012C
:1006280090912101029721F46C2F8C2F0E942703AF
:10063800809133018C3028F01092330181E080934F
:060648003201CF9108957C
:10064E0020E030E01CC0482F50E091E02417350721
:10065E000CF090E0F901EE0FFF1FE050FF4F90837A
:10066E00462F50E091E0241735070CF090E0F90189
:10067E00EE0FFF1FE050FF4F91832F5F3F4F2C3047
:06068E0031050CF3089594
:100694004A9905C0809137018F5F809337014A9B47
:1006A40005C08091370181508093370180913701D3
:1006B400853E30F081E08093380184EE80933701E9
:1006C400809137018C3128F4109238018CE18093A9
:0406D400370108954D
:1006D800811109C095B1916095B995B19D7F95B982
:1006E80095B19B7F95B9813049F495B19E7F95B9B5
:1006F80095B1926095B995B19B7F95B9823049F4CF
:1007080085B18E7F85B985B18D7F85B985B18460C6
:0407180085B9089502
:10071C0020E011C098B1977F98B980FF04C098B1C0
:10072C00916098B903C098B19E7F98B998B19860C0
:10073C0098B986952F5F283068F388B1877F88B980
:08074C0081E08A95F1F70895A0
:100754000E9417040E941F040E94D2030E94E20315
:100764000E9407040E94BD020E94BF030E94E80188
:0A0774000E9473000E946A01F5CF95
:10077E0080912601909127010196909327018093F5
:10078E0026018133954734F01092270110922601ED
:06079E000E948402089590
:1007A4001092C000E1ECF0E0108286E08093C20079
:1007B4001092C5008FE58093C40088E1808308957A
:1007C40084B1816084B984B1826084B984B1846065
:1007D40084B90E94380260E080E00E9427030895F3
:1007E400EC010E9436040E943504CE010E943704B5
:0607F400CE010E94330457
:1007FA0088B1846088B985E08A95F1F788B18B7FE2
:04080A0088B908950C
:10080E008AB18B7F8AB98AB180628AB90E94270425
:02081E0008953B
:0E0820009091C00095FFFCCF8093C600089514
:08082E0087B1806187B90895CC
:0808360088B1806188B90895C2
:08083E0088B18F7E88B908958E
:080846008BB180628BB90895AB
:08084E008BB18F7D8BB9089579
:060856000E94FD0308955D
:06085C000E948E030895C6
:040862000C940000F2
:040866000E9471007B
:02086A000895EF
:02086C000895ED
:02086E000895EB
:020870000A007C
:010872000184
:010873008004
:00000001FF
